S014000054686572656D696E436F70792E7372656339
S11300004EC000005CC000005AC0000058C0000090
S113001056C00000C6C0000052C0000050C000001E
S11300204EC000004CC000004AC0000048C00000A0
S113003046C0000044C0000042C0000040C00000B0
S11300403EC000003CC000003AC0000038C00000C0
S113005036C0000034C0000032C0000030C00000D0
S11300602EC000002CC000002AC0000028C00000E0
S113007026C0000024C0000022C0000020C00000F0
S11300801EC000001CC000001AC0000077018201DD
S11300908D019801A301AE01B901C401CF0111245E
S11300A01FBECFEFD0E1DEBFCDBF21E0A0E0B1E0C5
S11300B001C01D92A430B207E1F7D9D036C3A0CF56
S11300C08F929F92AF92BF92CF92DF92EF92FF9264
S11300D00F931F93CF93DF934B015C01A0E4BFE127
S11300E0D5D26B017C0116161706180619067CF585
S11300F060E271EA87E090E0A5019401A2D2122F98
S1130100D32F822F932F9C0140E050E0BA01A2E646
S1130110B0E0C8E0E8E8F0E02115310541F0812FB6
S11301209D2F02E00A95F1F700C00197D1F78C9159
S11301308C278C9380819181480F591F611D711DFB
S1130140118210824C155D056E057F052CF3DF913D
S1130150CF911F910F91FF90EF90DF90CF90BF90C0
S1130160AF909F908F900895181619066CF420E0B4
S113017030E0EFECF7E03197F1F700C000002F5FBB
S11301803F4F82179307A9F7089584E083B98FEC52
S113019097E00197F1F700C0000013B81DBC1CBC28
S11301A008951F920F920FB60F9211240BB60F925F
S11301B02F933F934F935F936F937F938F939F936B
S11301C0AF93BF93CF93DF93EF93FF930C9B0AC03E
S11301D010920301109202011DBC1CBC8EB58260FA
S11301E08EBD30C01EBCCCB5DDB5D0930301C09329
S11301F00201BE01DD2314F46F5F7F4F759567958F
S1130200072E000C880B990B7DD12DEC3CEC48EEAD
S113021051E4DDD044D17093010160930001CE011B
S11302206AE070E0FBD168BB80910001909101010C
S11302309C0121503109273C310518F08FEF8BBB0D
S113024001C08BBBFF91EF91DF91CF91BF91AF9133
S11302509F918F917F916F915F914F913F912F91DA
S11302600F900BBE0F900FBE0F901F90189584E057
S113027081BB8FEF8ABB87BB81E08ABF80E189BFE6
S1130280789488E080936100EAE8F0E080818160FE
S11302908083C12CD12C00E010E00F2EFAE1EF2E68
S11302A0F4E0FF2EF02D71DF8BB38F3F39F08BB369
S11302B0870194E0899F001911091124053611055D
S11302C00CF481C08BB3E82FE695E695E695CE2F26
S11302D0D0E0CC16DD0609F472C08E2F90E0893090
S11302E0910508F067C0FC01EA5BFF4FC6C128EC2A
S11302F030E040E050E065E071E080E090E0E0DE76
S11303006E01D1CF28EC30E040E050E065E271E0CE
S113031080E090E0D5DE6E01C6CF28EC30E040E00E
S113032050E069E471E080E090E0CADE6E01BBCF8A
S113033028EC30E040E050E06DE571E080E090E0D2
S1130340BFDE6E01B0CF28EC30E040E050E067E85B
S113035071E080E090E0B4DE6E01A5CF28EC30E0DF
S113036040E050E068EB71E080E090E0A9DE6E01CF
S11303709ACF28EC30E040E050E06DEE71E080E090
S113038090E09EDE6E018FCF28EC30E040E050E03C
S11303906BE072E080E090E093DE6E0184CF28ECA5
S11303A030E040E050E06BE472E080E090E088DE12
S11303B06E0179CF88EC90E0D7DE6E0174CF84E6CD
S11303C090E0D2DE70CF84E690E0CEDE6CCF0CD02D
S11303D0EBC0E3D040F0DAD030F021F45F3F19F005
S11303E0CCC0511115C1CFC0F0D098F39923C9F3F3
S11303F05523B1F3951B550BBB27AA276217730727
S1130400840738F09F5F5F4F220F331F441FAA1FDA
S1130410A9F333D00E2E3AF0E0E830D0915050409A
S1130420E695001CCAF729D0FE2F27D0660F771F48
S1130430881FBB1F261737074807AB07B0E809F02A
S1130440BB0B802DBF01FF2793585F4F2AF09E3FBF
S1130450510568F092C0DCC05F3FECF3983EDCF3DA
S1130460869577956795B795F7959F5FC9F7880F38
S1130470911D9695879597F90895E1E0660F771F8A
S1130480881FBB1F621773078407BA0720F0621B1B
S1130490730B840BBA0BEE1F88F7E095089504D014
S11304A06894B111B5C0089598D088F09F5790F022
S11304B0B92F9927B751A0F0D1F0660F771F881F85
S11304C0991F1AF0BA95C9F712C0B13081F09FD0C4
S11304D0B1E008959CC0672F782F8827B85F39F062
S11304E0B93FCCF3869577956795B395D9F73EF4E4
S11304F090958095709561957F4F8F4F9F4F08958C
S1130500E89409C097FB3EF49095809570956195A9
S11305107F4F8F4F9F4F9923A9F0F92F96E9BB275F
S11305209395F695879577956795B795F111F8CFDB
S1130530FAF4BB0F11F460FF1BC06F5F7F4F8F4F46
S11305409F4F16C0882311F096E911C0772321F03C
S11305509EE8872F762F05C0662371F096E8862FD4
S113056070E060E02AF09A95660F771F881FDAF72B
S1130570880F9695879597F9089597F99F6780E86E
S113058070E060E008959FEF80EC089500240A94E1
S11305901616170618060906089500240A9412165A
S11305A01306140605060895092E0394000C11F48D
S11305B0882352F0BB0F40F4BF2B11F460FF04C03A
S11305C06F5F7F4F8F4F9F4F089557FD9058440F93
S11305D0551F59F05F3F71F04795880F97FB991F9E
S11305E061F09F3F79F0879508951216130614065B
S11305F0551FF2CF4695F1DF08C0161617061806E8
S1130600991FF1CF86957105610508940895E894C2
S1130610BB2766277727CB0197F9089597FB072E09
S113062016F4009406D077FD08D03AD007FC05D024
S11306303EF4909581959F4F0895709561957F4FF5
S11306400895052E97FB16F400940FD057FD05D09E
S11306503BD007FC02D046F408C050954095309535
S113066021953F4F4F4F5F4F08959095809570951A
S113067061957F4F8F4F9F4F0895EE0FFF1F00240A
S1130680001C0BBE0790F691E02D09943FD0A59F66
S1130690900DB49F900DA49F800D911D1124089579
S11306A0AA1BBB1B51E107C0AA1FBB1FA617B70794
S11306B010F0A61BB70B881F991F5A95A9F78095B0
S11306C09095BC01CD010895A1E21A2EAA1BBB1B73
S11306D0FD010DC0AA1FBB1FEE1FFF1FA217B3070A
S11306E0E407F50720F0A21BB30BE40BF50B661F20
S11306F0771F881F991F1A9469F7609570958095E4
S113070090959B01AC01BD01CF010895A29FB0015A
S1130710B39FC001A39F700D811D1124911DB29F31
S1110720700D811D1124911D0895F894FFCFD2
S9030000FC
