S014000054686572656D696E436F70792E7372656339
S113000045C0000053C0000051C000004FC00000B4
S11300104DC00000ADC0000049C0000047C0000052
S113002045C0000043C0000041C000003FC00000C4
S11300303DC000003BC0000039C0000037C00000D4
S113004035C0000033C0000031C000002FC00000E4
S11300502DC000002BC0000029C0000027C00000F4
S113006025C0000023C0000021C000001FC0000004
S11300701DC000001BC0000019C0000017C0000014
S113008015C0000013C0000011C0000011241FBEE1
S1130090CFEFD0E1DEBFCDBF21E0A0E0B1E001C0F1
S11300A01D92A430B207E1F7C9D099C2A9CF8F92AB
S11300B09F92AF92BF92CF92DF92EF92FF920F93F3
S11300C01F93CF936B017C0149015A0160E079E0F1
S11300D08DE390E0A701960117D269017A01A0E4AB
S11300E0BFE1A50194012CD28B019C0140E050E0BA
S11300F0BA01E8E8F0E0C8E014C080819181A0E092
S1130100B0E08C159D05AE05BF05BCF383B18C270B
S113011083B980819181480F591F611D711D11821E
S11301201082401751076207730754F4808191814C
S1130130A0E0B0E08C159D05AE05BF053CF7DDCF12
S1130140CF911F910F91FF90EF90DF90CF90BF90D0
S1130150AF909F908F90089584E083B98FEC97E0DF
S11301600197F1F700C0000013B81DBC1CBC089532
S11301701F920F920FB60F9211240BB60F922F936A
S11301803F934F935F936F937F938F939F93AF931B
S1130190BF93CF93DF93EF93FF930C9B0AC010920E
S11301A00301109202011DBC1CBC8EB582608EBD81
S11301B030C01EBCCCB5DDB5D0930301C0930201A1
S11301C0BE01DD2314F46F5F7F4F75956795072E8D
S11301D0000C880B990BF9D02DEC3CEC48EE51E463
S11301E059D0C0D07093010160930001CE016AE040
S11301F070E077D168BB80910001909101019C016E
S113020021503109273C310518F08FEF8BBB01C019
S11302108BBBFF91EF91DF91CF91BF91AF919F91F4
S11302208F917F916F915F914F913F912F910F909B
S11302300BBE0F900FBE0F901F90189584E081BBEA
S11302408FEF8ABB87BB81E08ABF80E189BF789446
S113025088E082B9EAE8F0E08081816080830AE185
S113026014E07ADF8BB38F3F39F08BB3E80194E06D
S1130270899FC019D1091124C536D10594F328ECFE
S113028030E040E050E0BE010D2E000C880B990BCD
S11302900EDFE7CF0CD0EBC0E3D040F0DAD030F083
S11302A021F45F3F19F0CCC0511115C1CFC0F0D07B
S11302B098F39923C9F35523B1F3951B550BBB2729
S11302C0AA2762177307840738F09F5F5F4F220FD6
S11302D0331F441FAA1FA9F333D00E2E3AF0E0E8CF
S11302E030D091505040E695001CCAF729D0FE2F1B
S11302F027D0660F771F881FBB1F261737074807AD
S1130300AB07B0E809F0BB0B802DBF01FF27935862
S11303105F4F2AF09E3F510568F092C0DCC05F3FFA
S1130320ECF3983EDCF3869577956795B795F7954A
S11303309F5FC9F7880F911D9695879597F9089542
S1130340E1E0660F771F881FBB1F621773078407DE
S1130350BA0720F0621B730B840BBA0BEE1F88F7ED
S1130360E095089504D06894B111B5C0089598D06B
S113037088F09F5790F0B92F9927B751A0F0D1F08A
S1130380660F771F881F991F1AF0BA95C9F712C014
S1130390B13081F09FD0B1E008959CC0672F782FD1
S11303A08827B85F39F0B93FCCF386957795679580
S11303B0B395D9F73EF490958095709561957F4FEC
S11303C08F4F9F4F0895E89409C097FB3EF4909592
S11303D08095709561957F4F8F4F9F4F9923A9F01A
S11303E0F92F96E9BB279395F695879577956795A9
S11303F0B795F111F8CFFAF4BB0F11F460FF1BC0ED
S11304006F5F7F4F8F4F9F4F16C0882311F096E97F
S113041011C0772321F09EE8872F762F05C066232D
S113042071F096E8862F70E060E02AF09A95660FE6
S1130430771F881FDAF7880F9695879597F908959F
S113044097F99F6780E870E060E008959FEF80EC83
S1130450089500240A941616170618060906089526
S113046000240A9412161306140605060895092E8C
S11304700394000C11F4882352F0BB0F40F4BF2BFB
S113048011F460FF04C06F5F7F4F8F4F9F4F08953B
S113049057FD9058440F551F59F05F3F71F0479531
S11304A0880F97FB991F61F09F3F79F08795089516
S11304B0121613061406551FF2CF4695F1DF08C035
S11304C0161617061806991FF1CF86957105610552
S11304D008940895E894BB2766277727CB0197F9FA
S11304E0089597FB072E16F4009406D077FD08D0E4
S11304F031D007FC05D03EF4909581959F4F089527
S1130500709561957F4F0895052E97FB16F400941E
S11305100FD057FD05D032D007FC02D046F408C0F6
S113052050954095309521953F4F4F4F5F4F08951B
S113053090958095709561957F4F8F4F9F4F08954B
S11305403FD0A59F900DB49F900DA49F800D911D49
S113055011240895AA1BBB1B51E107C0AA1FBB1F8E
S1130560A617B70710F0A61BB70B881F991F5A953B
S1130570A9F780959095BC01CD010895A1E21A2EAA
S1130580AA1BBB1BFD010DC0AA1FBB1FEE1FFF1F33
S1130590A217B307E407F50720F0A21BB30BE40B83
S11305A0F50B661F771F881F991F1A9469F76095CA
S11305B07095809590959B01AC01BD01CF01089584
S11305C0A29FB001B39FC001A39F700D811D112490
S11305D0911DB29F700D811D1124911D0895F894F1
S10505E0FFCF47
S9030000FC
