S014000054686572656D696E436F70792E7372656339
S113000045C0000053C0000051C000004FC00000B4
S11300104DC000004CC0000049C0000047C00000B3
S113002045C0000043C0000041C000003FC00000C4
S11300303DC000003BC0000039C0000037C00000D4
S113004035C0000033C0000031C000002FC00000E4
S11300502DC000002BC0000029C0000027C00000F4
S113006025C0000023C0000021C000001FC0000004
S11300701DC000001BC0000019C0000017C0000014
S113008015C0000013C0000011C0000011241FBEE1
S1130090CFEFD0E1DEBFCDBF21E0A0E0B1E001C0F1
S11300A01D92A630B207E1F768D0B2C2A9CF1F9261
S11300B00F920FB60F9211240BB60F922F933F930A
S11300C04F935F936F937F938F939F93AF93BF935C
S11300D0CF93DF93EF93FF930C9B0AC0109205011B
S11300E0109204011DBC1CBC8EB582608EBD30C054
S11300F01EBCCCB5DDB5D0930501C0930401BE018F
S1130100DD2314F46F5F7F4F75956795072E000C00
S1130110880B990B8CD12DEC3CEC48EE51E4ECD0DF
S113012053D17093030160930201CE016AE070E041
S11301300AD268BB80910201909103019C01215075
S11301403109273C310518F08FEF8BBB01C08BBB05
S1130150FF91EF91DF91CF91BF91AF919F918F91DB
S11301607F916F915F914F913F912F910F900BBEB3
S11301700F900FBE0F901F90189584E081BB8FEFF6
S11301808ABB87BB88E080936100EAE8F0E0808165
S113019081608083C0E0D0E0412C512C32010AE11F
S11301A014E00F2EF2E6EF2EF12CF02D68942224A9
S11301B023F80F2EF8E88F2E912CF02DA12C6894A3
S11301C0BB24B2F830B280910201909103018C33C8
S11301D091057CF5880F991F880F991F9801281B9A
S11301E0390B3093010120930001253631050CF1C0
S11301F0032E000C440B550B60E271EA87E090E09B
S1130200B5D12115310539F082E08A95F1F700C0A6
S113021021503109C9F7F701808182258083F401D7
S113022080819181480E591E611C711C11821082BB
S113023009C0F2E0FA95F1F700C08FEF481A580AA6
S1130240680A780A209779F4E0EA4E16E6E85E0632
S1130250E1E06E0671040CF446C0B3B8F1E0CF2FB0
S113026080E0D82FAFCFE8E84E16EAE85E06E1E07A
S11302706E06710444F013B8F2E0CF2FDA2D412C4E
S1130280512C32019FCF30FACC24C0F8D12CC2308B
S1130290D10521F4CD2809F095CF25C0C330D1056F
S11302A011F5CD2801F5D301C20177201CF4019684
S11302B0A11DB11DBC01CD019595879577956795D5
S11302C0B6D02DEC3CEC48EE51E416D07DD07093C2
S11302D0030160930201E0E0CE2FF0E0DF2F412C18
S11302E0512C32016FCFC301B20128EE33E040E05C
S11302F050E03CD12BBB66CF0CD0EBC0E3D040F038
S1130300DAD030F021F45F3F19F0CCC0511115C19F
S1130310CFC0F0D098F39923C9F35523B1F3951BBB
S1130320550BBB27AA2762177307840738F09F5F12
S11303305F4F220F331F441FAA1FA9F333D00E2E81
S11303403AF0E0E830D091505040E695001CCAF7EE
S113035029D0FE2F27D0660F771F881FBB1F2617B3
S113036037074807AB07B0E809F0BB0B802DBF0186
S1130370FF2793585F4F2AF09E3F510568F092C0C3
S1130380DCC05F3FECF3983EDCF386957795679588
S1130390B795F7959F5FC9F7880F911D9695879537
S11303A097F90895E1E0660F771F881FBB1F621756
S11303B073078407BA0720F0621B730B840BBA0B14
S11303C0EE1F88F7E095089504D06894B111B5C084
S11303D0089598D088F09F5790F0B92F9927B75176
S11303E0A0F0D1F0660F771F881F991F1AF0BA95F5
S11303F0C9F712C0B13081F09FD0B1E008959CC01C
S1130400672F782F8827B85F39F0B93FCCF38695EA
S113041077956795B395D9F73EF490958095709547
S113042061957F4F8F4F9F4F0895E89409C097FBC4
S11304303EF490958095709561957F4F8F4F9F4FB7
S11304409923A9F0F92F96E9BB279395F6958795FB
S113045077956795B795F111F8CFFAF4BB0F11F4BE
S113046060FF1BC06F5F7F4F8F4F9F4F16C0882365
S113047011F096E911C0772321F09EE8872F762F9B
S113048005C0662371F096E8862F70E060E02AF0DC
S11304909A95660F771F881FDAF7880F96958795C8
S11304A097F9089597F99F6780E870E060E00895F0
S11304B09FEF80EC089500240A9416161706180678
S11304C00906089500240A94121613061406050654
S11304D00895092E0394000C11F4882352F0BB0FE5
S11304E040F4BF2B11F460FF04C06F5F7F4F8F4F48
S11304F09F4F089557FD9058440F551F59F05F3F83
S113050071F04795880F97FB991F61F09F3F79F031
S113051087950895121613061406551FF2CF4695B3
S1130520F1DF08C0161617061806991FF1CF869535
S11305307105610508940895E894BB276627772719
S1130540CB0197F9089597FB072E16F4009406D073
S113055077FD08D027D007FC05D03EF4909581950F
S11305609F4F0895709561957F4F0895052E97FBD1
S113057016F400940FD057FD05D028D007FC02D004
S113058046F408C050954095309521953F4F4F4F04
S11305905F4F089590958095709561957F4F8F4F2B
S11305A09F4F0895AA1BBB1B51E107C0AA1FBB1F85
S11305B0A617B70710F0A61BB70B881F991F5A95EB
S11305C0A9F780959095BC01CD010895A1E21A2E5A
S11305D0AA1BBB1BFD010DC0AA1FBB1FEE1FFF1FE3
S11305E0A217B307E407F50720F0A21BB30BE40B33
S11305F0F50B661F771F881F991F1A9469F760957A
S11306007095809590959B01AC01BD01CF01089533
S1070610F894FFCF88
S9030000FC
