S014000054686572656D696E436F70792E7372656339
S11300004EC000005DC000005BC0000059C000008D
S113001057C00000C9C0000053C0000051C0000018
S11300204FC000004DC000004BC0000049C000009C
S113003047C0000045C0000043C0000041C00000AC
S11300403FC000003DC000003BC0000039C00000BC
S113005037C0000035C0000033C0000031C00000CC
S11300602FC000002DC000002BC0000029C00000DC
S113007027C0000025C0000023C0000021C00000EC
S11300801FC000001DC000001BC0000074017E01E1
S1130090880192019C01A601B001BA01C401112496
S11300A01FBECFEFD0E1DEBFCDBF21E0A0E0B1E0C5
S11300B001C01D92A430B207E1F7E0D00C94F40A19
S11300C09FCF8F929F92AF92BF92CF92DF92EF9287
S11300D0FF920F931F93CF93DF934B015C01A0E436
S11300E0BFE10E94A50A6B017C01161617061806CB
S11300F0190684F560E271EA87E090E0A5019401B5
S11301000E94800A122FD32F822F932F9C0140E04C
S113011050E0BA01A2E6B0E0C8E0E8E8F0E021155A
S1130120310541F0812F9D2F02E00A95F1F700C0BF
S11301300197D1F78C918C278C9380819181480F02
S1130140591F611D711D118210824C155D056E05CC
S11301507F052CF3DF91CF911F910F91FF90EF90CA
S1130160DF90CF90BF90AF909F908F900895181616
S113017019066CF420E030E0EFECF7E03197F1F78A
S113018000C000002F5F3F4F82179307A9F708951F
S113019084E083B98FEC97E00197F1F700C0000089
S11301A013B81DBC1CBC08951F920F920FB60F927A
S11301B011240BB60F922F933F934F935F936F933A
S11301C07F938F939F93AF93BF93CF93DF93EF93DB
S11301D0FF930C9B0AC010920301109202011DBCF4
S11301E01CBC8EB582608EBD34C01EBCCCB5DDB5E2
S11301F0D0930301C0930201BE01DD2314F46F5FA9
S11302007F4F75956795072E000C880B990B0E94FC
S1130210E1092DEC3CEC48EE51E40E9446090E94B1
S1130220AE097093010160930001CE016AE070E0B1
S11302300E946D0A68BB80910001909101019C01AC
S113024021503109273C310518F08FEF8BBB01C0D9
S11302508BBBFF91EF91DF91CF91BF91AF919F91B4
S11302608F917F916F915F914F913F912F910F905B
S11302700BBE0F900FBE0F901F90189584E081BBAA
S11302808FEF8ABB87BB14BA81E08ABF80E189BF44
S1130290789488E080936100EAE8F0E080818160EE
S11302A08083C0E0D0E00AE114E072DF8BB38F3FBB
S11302B039F08BB3E80194E0899FC019D109112466
S11302C0C536D1050CF46EC08BB3E82FE695E695E0
S11302D0E6958E2F90E08930910508F05FC0FC010F
S11302E0EA5BFF4F0C949C0A28EC30E040E050E0BD
S11302F065E071E080E090E0E4DE57C028EC30E097
S113030040E050E065E271E080E090E0DADE4DC06C
S113031028EC30E040E050E069E471E080E090E0F7
S1130320D0DE43C028EC30E040E050E06DE571E001
S113033080E090E0C6DE39C028EC30E040E050E0D8
S113034067E871E080E090E0BCDE2FC028EC30E08C
S113035040E050E068EB71E080E090E0B2DE25C060
S113036028EC30E040E050E06DEE71E080E090E099
S1130370A8DE1BC028EC30E040E050E06BE072E007
S113038080E090E09EDE11C028EC30E040E050E0D8
S11303906BE472E080E090E094DE07C088EC90E0CB
S11303A0E6DE03C084E690E0E2DE989B7ECF01D0D7
S11303B07CCF24E630E040E050E064E972E080E085
S11303C090E07FDE86E990E0D2DE24E630E040E093
S11303D050E064E972E080E090E073DE8CE291E04A
S11303E0C6DE24E630E040E050E064E972E080E0FC
S11303F090E067DE8CE291E0BADE24E630E040E093
S113040050E06EEF71E080E090E05BDE84E690E027
S1130410AEDE24E630E040E050E064E972E080E0E3
S113042090E04FDE8CE291E0A2DE24E630E040E092
S113043050E062E073E080E090E043DE86E292E028
S113044096DE24E630E040E050E06CE771E080E0C6
S113045090E037DE8FE392E08ADE24E630E040E08D
S113046050E06EEF71E080E090E02BDE82EC91E0F2
S11304707EDE24E630E040E050E06CE771E080E0AE
S113048090E01FDE80E991E072DE24E630E040E097
S113049050E060E471E080E090E013DE84EF91E0EE
S11304A066DE24E630E040E050E068EB71E080E096
S11304B090E007DE8CE291E05ADE20E530E040E097
S11304C050E060EE71E080E090E0FBDD8AE491E0D2
S11304D04EDE24E630E040E050E062EC71E080E083
S11304E090E0EFDD86E990E042DE24E630E040E093
S11304F050E06EEA71E080E090E0E3DD8CE291E0B0
S113050036DE24E630E040E050E06CE771E080E065
S113051090E0D7DD88EC90E02ADE20E530E040E092
S113052050E064E972E080E090E0CBDD88EC90E09C
S11305301EDE22E330E040E050E068EF72E080E04D
S113054090E0BFDD86E990E012DE24E630E040E092
S113055050E06CE573E080E090E0B3DD8CE291E084
S113056006DE20E530E040E050E06CEB72E080E035
S113057090E0A7DD86E990E0FADD22E330E040E098
S113058050E068EF72E080E090E09BDD8EE591E062
S1130590EEDD20E530E040E050E064E972E080E028
S11305A090E08FDD8CE291E0E2DD20E530E040E098
S11305B050E068E072E080E090E083DD86E990E05E
S11305C0D6DD20E530E040E050E064E472E080E015
S11305D090E077DD86E990E0CADD20E530E040E098
S11305E050E060EE71E080E090E06BDD84EF91E03C
S11305F0BEDD24E630E040E050E06EEF71E080E0E4
S113060090E05FDD82EC91E0B2DD24E630E040E092
S113061050E06CE771E080E090E053DD80E991E028
S1130620A6DD24E630E040E050E060E471E080E0E4
S113063090E047DD84EF91E09ADD24E630E040E08D
S113064050E068EB71E080E090E03BDD8CE291E00B
S11306508EDD20E530E040E050E060EE71E080E0C7
S113066090E02FDD8AE491E082DD24E630E040E092
S113067050E062EC71E080E090E023DD86E990E0F8
S113068076DD24E630E040E050E06EEA71E080E0A0
S113069090E017DD8CE291E06ADD24E630E040E092
S11306A050E06CE771E080E090E00BDD88EC90E0D6
S11306B05EDD20E530E040E050E064E972E080E097
S11306C090E0FFDC88EC90E052DD22E330E040E093
S11306D050E068EF72E080E090E0F3DC86E990E0BF
S11306E046DD24E630E040E050E06CE573E080E075
S11306F090E0E7DC8CE291E03ADD20E530E040E098
S113070050E06CEB72E080E090E0DBDC86E990E0A6
S11307102EDD22E330E040E050E068EF72E080E05C
S113072090E0CFDC8EE591E022DD20E530E040E092
S113073050E064E972E080E090E0C3DC8CE291E098
S113074016DD20E530E040E050E068E072E080E053
S113075090E0B7DC86E990E00ADD20E530E040E097
S113076050E064E472E080E090E0ABDC86E990E085
S1130770FEDC20E530E040E050E060EE71E080E037
S113078090E09FDC84EF91E0F2DC24E630E040E08E
S113079050E064EF71E080E090E093DC8CE291E063
S11307A0E6DC24E630E040E050E068EF72E080E010
S11307B090E087DC84E690E0DADC24E630E040E098
S11307C050E060ED72E080E090E07BDC86E990E050
S11307D0CEDC24E630E040E050E068EA72E080E0FD
S11307E090E06FDC86E990E0C2DC26E930E040E08E
S11307F050E06CE672E080E090E063DC8CE291E033
S1130800B6DC26E930E040E050E06AE872E080E0DF
S113081090E057DC8CE291E0AADC24E630E040E092
S113082050E06CE771E080E090E04BDC86E990E01A
S11308309EDC24E630E040E050E06EEA71E080E0C7
S113084090E03FDC86E990E092DC24E630E040E092
S113085050E064EF71E080E090E033DC8CE291E002
S113086086DC24E630E040E050E06EEA71E080E0AF
S113087090E027DC86E990E07ADC24E630E040E092
S113088050E064EF71E080E090E01BDC84E690E0EF
S11308906EDC24E630E040E050E06AE372E080E0A1
S11308A090E00FDC8CED90E062DC24E630E040E088
S11308B050E064EF71E080E090E003DC8CE291E0D2
S11308C056DC24E630E040E050E068EF72E080E07F
S11308D090E0F7DB84E690E04ADC24E630E040E098
S11308E050E060ED72E080E090E0EBDB86E990E0C0
S11308F03EDC24E630E040E050E068EA72E080E06C
S113090090E0DFDB86E990E032DC26E930E040E08D
S113091050E06CE672E080E090E0D3DB8CE291E0A2
S113092026DC28EC30E040E050E06AE872E080E049
S113093090E0C7DB8CE291E01ADC20E530E040E097
S113094050E06CEF73E080E090E0BBDB8CE291E080
S11309500EDC20E530E040E050E06CEF73E080E036
S113096090E0AFDB86E990E002DC20E530E040E097
S113097050E06CEF73E080E090E0A3DB8CE291E068
S1130980F6DB24E630E040E050E06CE771E080E024
S113099090E097DB8CE291E0EADB24E630E040E093
S11309A050E064EF71E080E090E08BDB8CE291E05A
S11309B0DEDB24E630E040E050E068EF72E080E007
S11309C090E07FDB84E690E0D2DB24E630E040E098
S11309D050E060ED72E080E090E073DB86E990E047
S11309E0C6DB24E630E040E050E068EA72E080E0F4
S11309F090E067DB86E990E0BADB26E930E040E08E
S1130A0050E06CE672E080E090E05BDB8CE291E029
S1130A10AEDB26E930E040E050E06AE872E080E0D6
S1130A2090E04FDB8CE291E0A2DB24E630E040E092
S1130A3050E06CE771E080E090E043DB86E990E011
S1130A4096DB24E630E040E050E06EEA71E080E0BE
S1130A5090E037DB86E990E08ADB24E630E040E092
S1130A6050E064EF71E080E090E02BDB8CE291E0F9
S1130A707EDB24E630E040E050E06EEA71E080E0A6
S1130A8090E01FDB86E990E072DB24E630E040E092
S1130A9050E064EF71E080E090E013DB84E690E0E6
S1130AA066DB24E630E040E050E06AE372E080E098
S1130AB090E007DB84EA91E05ADB24E630E040E092
S1130AC050E069E472E080E090E0FBDA82EC91E0CF
S1130AD04EDB24E630E040E050E066E272E080E085
S1130AE090E0EFDA84EA91E042DB24E630E040E093
S1130AF050E064EF71E080E090E0E3DA88E691E0B2
S1130B0036DB24E630E040E050E06CE771E080E062
S1130B1090E0D7DA8CE291E02ADB24E630E040E092
S1130B2050E064EF71E080E090E0CBDA8CE291E099
S1130B301EDB24E630E040E050E064EF71E080E04A
S1130B4090E0BFDA86E990E012DB24E630E040E092
S1130B5050E064EF71E080E090E0B3DA8CE291E081
S1130B6006DB24E630E040E050E064EF71E080E032
S1130B7090E0A7DA8CE291E0FADA24E630E040E093
S1130B8050E068EF72E080E090E09BDA84E690E069
S1130B90EEDA24E630E040E050E060ED72E080E020
S1130BA090E08FDA86E990E0E2DA24E630E040E093
S1130BB050E068EA72E080E090E083DA86E990E051
S1130BC0D6DA26E930E040E050E06CE672E080E0FE
S1130BD090E077DA8CE291E0CADA26E930E040E08E
S1130BE050E06AE872E080E090E06BDA8CE291E039
S1130BF0BEDA24E630E040E050E06CE771E080E0EB
S1130C0090E05FDA86E990E0B2DA24E630E040E092
S1130C1050E06EEA71E080E090E053DA86E990E01B
S1130C20A6DA24E630E040E050E064EF71E080E0D2
S1130C3090E047DA8CE291E09ADA24E630E040E092
S1130C4050E06EEA71E080E090E03BDA86E990E003
S1130C508EDA24E630E040E050E064EF71E080E0BA
S1130C6090E02FDA84E690E082DA24E630E040E097
S1130C7050E06AE372E080E090E023DA8CED90E0EB
S1130C8076DA24E630E040E050E064EF71E080E0A2
S1130C9090E017DA8CE291E06ADA24E630E040E092
S1130CA050E068EF72E080E090E00BDA84E690E0D8
S1130CB05EDA24E630E040E050E060ED72E080E08F
S1130CC090E0FFD986E990E052DA24E630E040E093
S1130CD050E068EA72E080E090E0F3D986E990E0C1
S1130CE046DA26E930E040E050E06CE672E080E06D
S1130CF090E0E7D98CE291E03ADA28EC30E040E089
S1130D0050E06AE872E080E090E0DBD98CE291E0A8
S1130D102EDA20E530E040E050E06CEF73E080E054
S1130D2090E0CFD98CE291E022DA20E530E040E097
S1130D3050E06CEF73E080E090E0C3D986E990E086
S1130D4016DA20E530E040E050E06CEF73E080E03C
S1130D5090E0B7D98CE291E00ADA24E630E040E092
S1130D6050E06CE771E080E090E0ABD98CE291E078
S1130D70FED924E630E040E050E064EF71E080E02A
S1130D8090E09FD98CE291E0F2D924E630E040E093
S1130D9050E068EF72E080E090E093D984E690E060
S1130DA0E6D924E630E040E050E060ED72E080E017
S1130DB090E087D986E990E0DAD924E630E040E093
S1130DC050E068EA72E080E090E07BD986E990E048
S1130DD0CED926E930E040E050E06CE672E080E0F5
S1130DE090E06FD98CE291E0C2D926E930E040E08E
S1130DF050E06AE872E080E090E063D98CE291E030
S1130E00B6D924E630E040E050E06CE771E080E0E1
S1130E1090E057D986E990E0AAD924E630E040E092
S1130E2050E06EEA71E080E090E04BD986E990E012
S1130E309ED924E630E040E050E064EF71E080E0C9
S1130E4090E03FD98CE291E092D924E630E040E092
S1130E5050E06EEA71E080E090E033D986E990E0FA
S1130E6086D924E630E040E050E064EF71E080E0B1
S1130E7090E027D984E690E07AD924E630E040E097
S1130E8050E06AE372E080E090E01BD984EA91E0EC
S1130E906ED924E630E040E050E069E472E080E09E
S1130EA090E00FD982EC91E062D924E630E040E092
S1130EB050E066E272E080E090E003D984EA91E0D9
S1130EC056D924E630E040E050E064EF71E080E081
S1130ED090E0F7D888E691E04AD924E630E040E093
S1130EE050E06CE771E080E090E0EBD88CE291E0B8
S1130EF03ED924E630E040E050E064EF71E080E069
S1130F0090E0DFD88CE291E032D924E630E040E092
S1130F1050E064EF71E080E090E0D3D886E990E09F
S1130F2026D924E630E040E050E064EF71E080E050
S1130F3090E0C7D88CE291E01AD92CE330E040E08D
S1130F4050E064EF71E080E090E0BBD886E990E087
S1130F500ED920E530E040E050E064EF71E080E03D
S1130F6090E0AFD88CE291E002D92CE330E040E08D
S1130F7050E064EF71E080E090E0A3D88EE591E06A
S1130F80F6D820E530E040E050E064EF71E080E026
S1130F9090E097D886E990E0EAD820E530E040E098
S1130FA050E064E472E080E090E08BD88EE591E05C
S1130FB0DED820E530E040E050E064E972E080E013
S1130FC090E07FD886E990E0D2D820E530E040E098
S1130FD050E064EF71E080E090E073D88CE291E03F
S1130FE0C6D820E530E040E050E06EEA71E080E0F1
S1130FF090E067D886E990E0BAD820E530E040E098
S113100050E06CE771E080E090E05BD888E592E026
S1131010AED82CE330E040E050E064EF71E080E0D3
S113102090E04FD886E990E0A2D820E530E040E097
S113103050E064EF71E080E090E043D88CE291E00E
S113104096D82CE330E040E050E064EF71E080E0BB
S113105090E037D88EE591E08AD820E530E040E092
S113106050E064EF71E080E090E02BD886E990E0F6
S11310707ED820E530E040E050E064E472E080E0B7
S113108090E01FD886E990E072D820E530E040E097
S113109050E064E972E080E090E013D886E292E0E8
S11310A066D820E530E040E050E066E673E080E09A
S11310B090E007D885E491E05AD820E530E040E09C
S11310C050E068EF72E080E090E00E94610088E503
S11310D092E04DD82CE330E040E050E064EF71E062
S11310E080E090E00E94610086E990E040D820E52D
S11310F030E040E050E064EF71E080E090E00E9476
S113110061008CE291E033D82CE330E040E050E021
S113111064EF71E080E090E00E9461008EE591E070
S113112026D820E530E040E050E064EF71E080E054
S113113090E00E94610086E990E019D820E530E053
S113114040E050E064E472E080E090E00E946100DE
S11311508EE591E00CD820E530E040E050E064E911
S113116072E080E090E00E94610086E990E00E94D5
S1131170B70020E530E040E050E064EF71E080E04B
S113118090E00E9461008CE291E00E94B70020E5AB
S113119030E040E050E06EEA71E080E090E00E94D0
S11311A0610086E990E00E94B70020E530E040E06D
S11311B050E06CE771E080E090E00E94610088E517
S11311C092E00E94B70024E630E040E050E064E999
S11311D072E080E090E00E94610086E990E00E9465
S11311E0B70024E630E040E050E064E972E080E0DB
S11311F090E00E9461008CE291E00E94B70024E636
S113120030E040E050E064E972E080E090E00E9469
S113121061008CE291E00E94B70024E630E040E0F7
S113122050E06EEF71E080E090E00E94610084E69F
S113123090E00E94B70024E630E040E050E064E92A
S113124072E080E090E00E9461008CE291E00E94F4
S1131250B70024E630E040E050E062E073E080E074
S113126090E00E94610086E292E00E94B70024E6CA
S113127030E040E050E06CE771E080E090E00E94F4
S113128061008FE392E00C94B70008950CD0EBC09A
S1131290E3D040F0DAD030F021F45F3F19F0CCC055
S11312A0511115C1CFC0F0D098F39923C9F3552338
S11312B0B1F3951B550BBB27AA2762177307840745
S11312C038F09F5F5F4F220F331F441FAA1FA9F3FB
S11312D033D00E2E3AF0E0E830D091505040E695ED
S11312E0001CCAF729D0FE2F27D0660F771F881F4E
S11312F0BB1F261737074807AB07B0E809F0BB0B3D
S1131300802DBF01FF2793585F4F2AF09E3F510560
S113131068F092C0DCC05F3FECF3983EDCF3869546
S113132077956795B795F7959F5FC9F7880F911DD6
S11313309695879597F90895E1E0660F771F881FC2
S1131340BB1F621773078407BA0720F0621B730B75
S1131350840BBA0BEE1F88F7E095089504D06894C7
S1131360B111B5C0089598D088F09F5790F0B92F67
S11313709927B751A0F0D1F0660F771F881F991FE6
S11313801AF0BA95C9F712C0B13081F09FD0B1E01C
S113139008959CC0672F782F8827B85F39F0B93F2C
S11313A0CCF3869577956795B395D9F73EF49095E8
S11313B08095709561957F4F8F4F9F4F0895E89466
S11313C009C097FB3EF490958095709561957F4F89
S11313D08F4F9F4F9923A9F0F92F96E9BB27939537
S11313E0F695879577956795B795F111F8CFFAF447
S11313F0BB0F11F460FF1BC06F5F7F4F8F4F9F4F78
S113140016C0882311F096E911C0772321F09EE8D5
S1131410872F762F05C0662371F096E8862F70E03B
S113142060E02AF09A95660F771F881FDAF7880F15
S11314309695879597F9089597F99F6780E870E0E6
S113144060E008959FEF80EC089500240A94161636
S1131450170618060906089500240A94121613069E
S1131460140605060895092E0394000C11F488232C
S113147052F0BB0F40F4BF2B11F460FF04C06F5F48
S11314807F4F8F4F9F4F089557FD9058440F551F1E
S113149059F05F3F71F04795880F97FB991F61F0F2
S11314A09F3F79F087950895121613061406551F69
S11314B0F2CF4695F1DF08C0161617061806991FD5
S11314C0F1CF86957105610508940895E894BB27CA
S11314D066277727CB0197F9089597FB072E16F413
S11314E0009406D077FD08D03AD007FC05D03EF42E
S11314F0909581959F4F0895709561957F4F0895BC
S1131500052E97FB16F400940FD057FD05D03BD061
S113151007FC02D046F408C05095409530952195BB
S11315203F4F4F4F5F4F089590958095709561950B
S11315307F4F8F4F9F4F0895EE0FFF1F0024001C15
S11315400BBE0790F691E02D09943FD0A59F900D16
S1131550B49F900DA49F800D911D11240895AA1B82
S1131560BB1B51E107C0AA1FBB1FA617B70710F08A
S1131570A61BB70B881F991F5A95A9F780959095BC
S1131580BC01CD010895A1E21A2EAA1BBB1BFD01CB
S11315900DC0AA1FBB1FEE1FFF1FA217B307E4074E
S11315A0F50720F0A21BB30BE40BF50B661F771FA6
S11315B0881F991F1A9469F7609570958095909586
S11315C09B01AC01BD01CF010895A29FB001B39F5F
S11315D0C001A39F700D811D1124911DB29F700D38
S10F15E0811D1124911D0895F894FFCF83
S9030000FC
